:100000000C942B010C945C010C945C010C945C012D
:100010000C945C010C945C010C945C010C945C01EC
:100020000C945C010C945C010C945C010C945C01DC
:100030000C945C010C945C010C945C010C945C01CC
:100040000C945C010C945C010C945C010C945C01BC
:100050000C945C010C945C010C945C010C944904BC
:100060000C945C010C941D050C94F3040C945C013D
:100070000C945C010C945C010C945C010C945C018C
:100080000C945C010C945C010C945C010C945C017C
:100090000C94BD040C9493040C945C010C945C01CE
:1000A0000C945C010C945C010C945C010C945C015C
:1000B0000C945C010C945C010C945C010C945C014C
:1000C0000C945C010C945C010C945C010C945C013C
:1000D0000C945C010C945C010C945C010C945C012C
:1000E0000C945C010C9461030C945B030C9432033C
:1000F0000C94A5010C94D2010C940F030C944903A9
:100100000C942A030C94BA080C9492020C944503A4
:100110000C9465030C942E030C94F5010C944D0380
:100120000C9445020C943F030C9453050C94030269
:100130000C9435030C943B030C9457030C94260346
:100140000C9453030C94E1010C94140300000A0B6B
:1001500002090C0D0E080703040100000000000056
:10016000000000000000000000000000000000008F
:10017000000000000000000012111000000000004C
:10018000000000000000000000000000000000006F
:10019000000000002200250028002B002E00310066
:1001A000340002010000050108010B0100002100DC
:1001B000240027002A002D00300033000101000038
:1001C000040107010A0105050505070508080808D7
:1001D000020202020A0A08080404040401010101DF
:1001E00001010101030303030303030304070707DA
:1001F0000C0C0C0C0C0C0C0C02020202060606067F
:10020000060606060B0B0B0B0B0B0B0B010210204B
:10021000200808102040102040800201020108043C
:1002200002010102040810204080804020100804D0
:100230000201800402018040201008040201080429
:10024000020101020408102040800102040810206D
:1002500040805305BA0811241FBECFEFD1E2DEBFA4
:10026000CDBF00E00CBF23E0AAE1B2E001C01D92C7
:10027000A73DB207E1F712E0A0E0B2E0ECE0F7E161
:1002800000E00BBF02C007900D92AA31B107D9F769
:1002900011E0CAE2D1E000E006C021970109802FF9
:1002A000FE010E945609C932D10780E00807A9F76C
:1002B0000E944C060C94740B0C940000FC01A08965
:1002C000B18982E08C93A485B5851C92A685B785FB
:1002D0008FEC8C93108EA489B58986E08C93A289CB
:1002E000B3898C9180618C93A289B3898C91886049
:1002F0008C93A289B3898C9180688C930288F3894E
:10030000E02D80818F7D8083089590E0FC01E45F83
:10031000FD4F24918A539E4FFC018491882399F0CC
:1003200090E0880F991FFC01E455FE4FA591B49110
:10033000FC01EE56FE4F859194918FB7F894EC91A5
:10034000E22BEC938FBF08950895AF92BF92CF92A6
:10035000DF92EF92FF920F931F93CF93DF936C0185
:100360007B018B01040F151FEB015E01AE18BF0866
:10037000C017D10759F06991D601ED91FC91019018
:10038000F081E02DC6011995892B79F7C501DF9120
:10039000CF911F910F91FF90EF90DF90CF90BF9082
:1003A000AF900895FC01538D448D252F30E0842FAC
:1003B00090E0821B930B541710F0CF96089501978D
:1003C0000895FC01918D828D981761F0A28DAE0F7A
:1003D000BF2FB11D5D968C91928D9F5F9F73928F01
:1003E00090E008958FEF9FEF0895FC01918D828D2D
:1003F000981731F0828DE80FF11D858D90E00895FA
:100400008FEF9FEF0895FC01918D228D892F90E051
:10041000805C9F4F821B91098F739927089583E217
:1004200092E00E94030221E0892B09F420E0822F50
:10043000089580EC92E00E94030221E0892B09F4E8
:1004400020E0822F0895FC01A48DA80FB92FB11DC3
:10045000A35ABF4F2C91848D90E001968F739927FA
:10046000848FA689B7892C93A089B1898C918370D8
:1004700080648C93938D848D981306C00288F389D1
:10048000E02D80818F7D80830895EF92FF920F93FE
:100490001F93CF93DF93EC0181E0888F9B8D8C8D30
:1004A00098131AC0E889F989808185FF15C09FB724
:1004B000F894EE89FF896083E889F98980818370E7
:1004C000806480839FBF81E090E0DF91CF911F9196
:1004D0000F91FF90EF900895F62E0B8D10E00F5FB7
:1004E0001F4F0F731127E02E8C8D8E110CC00FB68D
:1004F00007FCFACFE889F989808185FFF5CFCE0125
:100500000E942302F1CFEB8DEC0FFD2FF11DE35A7A
:10051000FF4FF0829FB7F8940B8FEA89FB898081A7
:100520008062CFCFCF93DF93EC01888D8823B9F021
:10053000AA89BB89E889F9898C9185FD03C08081EE
:1005400086FD0DC00FB607FCF7CF8C9185FFF2CF6B
:10055000808185FFEDCFCE010E942302E9CFDF919C
:10056000CF91089580E090E0892B29F00E94190234
:1005700081110E94000080E090E0892B29F00E9408
:100580000F0281110E94000080E090E0892B49F069
:1005900080E090E0892B29F00E94000081110E94E8
:1005A000000080E090E0892B49F080E090E0892B0A
:1005B00029F00E94000081110C9400000895282F5A
:1005C00030E0F901E45BFE4F9491F901E45FFD4FE7
:1005D00044912A533E4FF9012491222309F435C056
:1005E000992311F191509231F8F4E92FF0E0882726
:1005F000E350FD4F8F4F0C9456092E0332030F0327
:1006000026032A03140335033B033F034503490331
:100610004D035303570314035B0361036503809188
:1006200080008F7780938000E22FF0E0EE0FFF1FB5
:10063000EE56FE4FA591B4918FB7F894EC916111ED
:1006400048C040954E234C938FBF08958091800001
:100650008F7DE8CF80918000877FE4CF84B58F774E
:1006600084BDE2CF84B58F7DFBCF8091B0008F77C2
:100670008093B000D9CF8091B0008F7DF9CF809169
:1006800090008F7780939000CFCF809190008F7DE6
:10069000F9CF80919000877FF5CF8091A0008F7770
:1006A0008093A000C1CF8091A0008F7DF9CF809171
:1006B000A000877FF5CF809120018F778093200164
:1006C000B3CF809120018F7DF9CF80912001877F6A
:1006D000F5CF4E2BB8CFCF93DF93EC0188816A30F2
:1006E000710589F461E00E94DF0260E08A810E9466
:1006F000DF0261E08C810E94DF0260E08E81DF9189
:10070000CF910C94DF026115710529F460E00E941D
:10071000DF0260E024C06130710529F460E00E94CE
:10072000DF0260E028C06230710511F460E0DBCFC9
:100730006330710569F460E00E94DF0260E08A8145
:100740000E94DF0261E08C810E94DF0261E0D6CF6F
:100750006430710549F460E00E94DF0261E08A8143
:100760000E94DF0260E0C6CF6530710549F460E0A9
:100770000E94DF0261E08A810E94DF0260E0E3CF35
:100780006630710529F460E00E94DF0261E0AECFBF
:100790006730710529F460E00E94DF0261E0CFCF8D
:1007A0006830710511F461E0B2CF61E0B8CFFC01AF
:1007B00080819181009711F00C94FA0908950F93AC
:1007C0001F93CF93DF93EC0188819981009759F0B3
:1007D0002A813B812617370730F081E0DF91CF91E6
:1007E0001F910F9108958B016F5F7F4F0E94830AC5
:1007F000009759F0998388831B830A832C813D815C
:10080000232B59F7FC011082E8CF80E0E7CFEF926D
:10081000FF920F931F93CF93DF93EC017B018A012B
:10082000BA010E94DF0328813981811114C021158A
:10083000310519F0C9010E94FA09198218821D8236
:100840001C821B821A82CE01DF91CF911F910F91E2
:10085000FF90EF9008951D830C83B701C9010E949A
:100860006D0BF1CFFC01118210821382128215826E
:10087000148250E040E068E172E00C940704FB0150
:1008800001900020E9F73197AF01461B570B0C94FC
:1008900007041F920F920FB60F9211242F933F93CC
:1008A0008F939F93AF93BF9380911F0290912002EB
:1008B000A0912102B091220230911E0223E0230F69
:1008C0002D3758F50196A11DB11D20931E0280936E
:1008D0001F0290932002A0932102B09322028091E4
:1008E0001A0290911B02A0911C02B0911D02019668
:1008F000A11DB11D80931A0290931B02A0931C02AC
:10090000B0931D02BF91AF919F918F913F912F9115
:100910000F900FBE0F901F90189526E8230F029698
:10092000A11DB11DD2CF1F920F920FB60F921124AD
:100930000BB60F922F933F934F935F936F937F93D9
:100940008F939F93AF93BF93EF93FF9383E292E0D4
:100950000E942302FF91EF91BF91AF919F918F91E0
:100960007F916F915F914F913F912F910F900BBEAF
:100970000F900FBE0F901F9018951F920F920FB6F9
:100980000F9211240BB60F922F938F939F93EF9397
:10099000FF93E0913302F09134028081E0913902BB
:1009A000F0913A0282FD1DC0908180913C028F5FE0
:1009B0008F7320913D02821741F0E0913C02F0E0FC
:1009C000ED5DFD4F958F80933C02FF91EF919F91DC
:1009D0008F912F910F900BBE0F900FBE0F901F9015
:1009E00018958081F2CF1F920F920FB60F921124AB
:1009F0000BB60F922F933F934F935F936F937F9319
:100A00008F939F93AF93BF93EF93FF9380EC92E00C
:100A10000E942302FF91EF91BF91AF919F918F911F
:100A20007F916F915F914F913F912F910F900BBEEE
:100A30000F900FBE0F901F9018951F920F920FB638
:100A40000F9211240BB60F922F938F939F93EF93D6
:100A5000FF93E091D002F091D1028081E091D60223
:100A6000F091D70282FD1DC090818091D9028F5FE5
:100A70008F732091DA02821741F0E091D902F0E001
:100A8000E054FD4F958F8093D902FF91EF919F9194
:100A90008F912F910F900BBE0F900FBE0F901F9054
:100AA00018958081F2CFE3E2F2E01382128248EEE1
:100AB00053E060E070E044835583668377838AE087
:100AC00092E0918380832DEC30E0358724872CECF5
:100AD00030E03787268728EC30E0318B208B29ECFB
:100AE00030E0338B228B2AEC30E0358B248B2EECDC
:100AF00030E0378B268B118E128E138E148EE0EC25
:100B0000F2E0138212824483558366837783918354
:100B1000808385EC90E09587848784EC90E09787CC
:100B2000868780EC90E0918B808B81EC90E0938BBA
:100B3000828B82EC90E0958B848B86EC90E0978B97
:100B4000868B118E128E138E148EE9ECF3E082E008
:100B500090E09183808383E090E09383828384E0BC
:100B600090E09583848385E090E09783868380E29C
:100B700090E091878087EFEBF3E08AE090E091834B
:100B800080838BE090E0938382838CE090E0958378
:100B900084838DE090E09783868382E290E0918762
:100BA0008087E5EBF3E084E190E09183808385E149
:100BB00090E09383828386E190E09583848387E14C
:100BC00090E09783868384E290E091878087EBEAC8
:100BD000F3E088E190E09183808389E190E0938362
:100BE00082838AE190E0958384838BE190E0978310
:100BF000868386E290E091878087E1EAF3E08CE1EA
:100C000090E0918380838DE190E0938382838EE1F5
:100C100090E0958384838FE190E09783868388E2D8
:100C200090E0918780878AE0E9ECF3E0AFE6B3E0FB
:100C300001900D928A95E1F78AE0EFEBF3E0A9E7E6
:100C4000B3E001900D928A95E1F78AE0E5EBF3E0DD
:100C5000A3E8B3E001900D928A95E1F78AE0EBEA10
:100C6000F3E0ADE8B3E001900D928A95E1F78AE0F8
:100C7000E1EAF3E0A7E9B3E001900D928A95E1F78C
:100C800089E693E00E94320483E693E00E943204F6
:100C90008DE593E00C943204CF93DF93CDB7DEB7AC
:100CA000E3970FB6F894DEBF0FBECDBF789484B53E
:100CB000826084BD84B5816084BD85B5826085BD58
:100CC00085B5816085BD80916E00816080936E00E6
:100CD00010928100809181008260809381008091D8
:100CE0008100816080938100809180008160809389
:100CF00080008091B10084608093B1008091B00049
:100D000081608093B0008091910082608093910017
:100D1000809191008160809391008091900081602A
:100D2000809390008091A10082608093A1008091C7
:100D3000A10081608093A1008091A00081608093D8
:100D4000A000809121018260809321018091210186
:100D50008160809321018091200181608093200136
:100D600080917A00846080937A0080917A0082601A
:100D700080937A0080917A00816080937A008091DC
:100D80007A00806880937A001092C1008AE20E9403
:100D9000850180EC92E00E945E0183E292E00E9475
:100DA0005E010FE613E091EAE92E93E0F92EF801D7
:100DB00080810E948501F80182810E948501F801ED
:100DC00084810E948501F80186810E948501065F69
:100DD0001F4FE016F10659F78AE0482E512C612C7E
:100DE000712C83E292E00E9403021816190664F542
:100DF00083E292E00E94E1019C01205331092A30F4
:100E0000310528F589831A8200916D0310916E03D4
:100E10000F5F1F4FB80189E693E00E94DF0388232C
:100E200099F02091690330916A0380916D0390914C
:100E30006E03BE016F5F7F4F820F931F0E946D0B89
:100E400010936E0300936D030E94B202CACF8D30DF
:100E5000910509F0BBC01A8219821C821B821E8276
:100E60001D8250E040E068E172E0CE0101960E94F0
:100E7000070400916D0310916E030115110509F02F
:100E8000A9C08091630390916403009709F4D2C0D4
:100E900069817A816115710509F4CAC040916503C1
:100EA000509166032D813E814217530708F4C0C05C
:100EB0000E946D0B8D819E819093680380936703E0
:100EC0001E821D82CE0101960E94D703809163038A
:100ED00090916403C12CD12C7601009721F00E94DF
:100EE000C6086B017C011BA21AA21DA21CA21FA294
:100EF0001EA22AE0AE014F5F5F4FC701B6010E94FC
:100F00000209BE016F5F7F4FCE0182960E943F04AF
:100F1000C701B60120E137E240E050E00E94340909
:100F2000CA01B901A30192010E94340968AB79ABEF
:100F30008AAB9BABC701B60128EE33E040E050E03E
:100F40000E943409CA01B901A30192010E94340927
:100F50006CA77DA78EA79FA7C701B60124E630E046
:100F600040E050E00E943409CA01B901A301920196
:100F70000E94340968A779A78AA79BA7C701B60171
:100F8000A30192010E9434094B01CA01B901A301D6
:100F900092010E9434096B018EA19FA183309105BB
:100FA00009F4AFC008F05DC08130910509F480C03C
:100FB000029709F49FC0CE0182960E94D70368E190
:100FC00072E089E693E00E943F043ECF039709F464
:100FD00042CF3ACF0630110510F006E010E0E09164
:100FE0006903F0916A03E00FF11FF08010826091B5
:100FF000690370916A036115710569F0CE0101966C
:101000000E943F048091690390916A03080F191FA1
:10101000F801F08236CF89819A81009711F00E9401
:10102000FA091A8219821E821D821C821B82EACF53
:101030000E94FA0989819A819093640380936303E3
:101040008B819C8190936603809365038D819E8143
:1010500090936803809367031A8219821C821B8213
:101060002FCF8530910509F46CC008F457C006975E
:1010700009F0A1CFB4018FE693E00E946B03B601A3
:1010800089E793E00E946B0368A579A583E893E064
:101090000E946B036CA57DA58DE893E00E946B0315
:1010A00068A979A987E993E00E946B0361E01EC0FB
:1010B000B4018FE693E00E946B036AE070E089E779
:1010C00093E00E946B036AE070E083E893E00E9483
:1010D0006B036AE070E08DE893E00E946B036AE0C6
:1010E00070E087E993E00E946B0360E08AE20E946F
:1010F000DF0261CFB4018FE693E00E946B03B6017B
:10110000DECFB4018FE693E00E946B03B60189E75E
:1011100093E00E946B0368A579A5D7CFB4018FE651
:1011200093E00E946B03B60189E793E00E946B0392
:1011300068A579A583E893E00E946B036CA57DA563
:10114000CACFB4018FE693E00E946B03B60189E732
:1011500093E00E946B0368A579A583E893E00E9461
:101160006B036CA57DA58DE893E00E946B0368A9D5
:1011700079A9B7CF8DE593E00E94D70383E693E08A
:101180000E94D70389E693E00C94D7031F93FC01D8
:1011900099278827BC01E89411911032E9F319309E
:1011A00010F01E30C8F31B3251F01D3249F4689420
:1011B00006C00E94ED08610F711D811D911D1191E6
:1011C00010531A30B0F33EF4909580957095619568
:1011D0007F4F8F4F9F4F1F910895592F482F372FC3
:1011E000262F660F771F881F991F660F771F881F8E
:1011F000991F620F731F841F951F660F771F881F2B
:10120000991F0895BB27FA01A62F62177105810562
:101210009105330B30FB66F0AA27660F771F881FF6
:10122000991FAA1FA21710F0A21B63953850A9F7A7
:10123000A05DAA3308F0A95DA19336F7B111B1936F
:101240001082CA010C942409DC01FC01672F719102
:101250007723E1F7329704C07C916D93708362919C
:10126000AE17BF07C8F30895A1E21A2EAA1BBB1B35
:10127000FD010DC0AA1FBB1FEE1FFF1FA217B30762
:10128000E407F50720F0A21BB30BE40BF50B661F78
:10129000771F881F991F1A9469F76095709580953C
:1012A00090959B01AC01BD01CF010895EE0FFF1F8A
:1012B000881F8BBF0790F691E02D19940F931F9311
:1012C000CF93DF938230910510F482E090E0E091BB
:1012D000D503F091D60330E020E0B0E0A0E03097F5
:1012E00099F42115310509F44AC0281B390B243023
:1012F0003105D8F58A819B816115710589F1FB0162
:1013000093838283FE0111C0408151810281138148
:1013100048175907E0F04817590799F4109761F0FA
:1013200012960C93129713961C933296CF01DF916D
:10133000CF911F910F9108950093D5031093D60379
:10134000F4CF2115310551F04217530738F0A901A8
:10135000DB019A01BD01DF01F801C1CFEF01F9CF37
:101360009093D6038093D503CDCFFE01E20FF31FF8
:10137000819391932250310939832883D7CF2091CB
:10138000D3033091D403232B41F4209102023091F6
:1013900003023093D4032093D303209100023091B1
:1013A00001022115310541F42DB73EB740910402E9
:1013B00050910502241B350BE091D303F091D40327
:1013C000E217F307A0F42E1B3F0B2817390778F01C
:1013D000AC014E5F5F4F2417350748F04E0F5F1F7B
:1013E0005093D4034093D303819391939FCFF0E024
:1013F000E0E09CCFCF93DF930097E9F0FC013297B8
:1014000013821282A091D503B091D603ED0130E092
:1014100020E01097A1F420813181820F931F209149
:10142000D3033091D4032817390709F061C0F09332
:10143000D403E093D303DF91CF910895EA01CE174F
:10144000DF07E8F54A815B819E0141155105B1F73F
:10145000E901FB83EA8349915991C40FD51FEC1729
:10146000FD0761F4808191810296840F951FE90147
:1014700099838883828193819B838A83F0E0E0E073
:1014800012968D919C9113970097B9F52D913C91EF
:101490001197CD010296820F931F2091D3033091B3
:1014A000D4032817390739F6309751F51092D6032F
:1014B0001092D503B093D403A093D303BCCFD383AE
:1014C000C28340815181840F951FC817D90761F4E9
:1014D0004E5F5F4F88819981480F591F5183408328
:1014E0008A819B81938382832115310509F0B0CFD6
:1014F000F093D603E093D5039ECFFD01DC01C0CF6E
:1015000013821282D7CF4F925F926F927F928F9207
:101510009F92AF92BF92CF92DF92EF92FF920F9382
:101520001F93CF93DF938C01009799F4CB01DF9148
:10153000CF911F910F91FF90EF90DF90CF90BF90D0
:10154000AF909F908F907F906F905F904F900C9492
:101550005E09FC01E60FF71F9C0122503109E217DA
:10156000F30708F4AEC0D901CD91DC911197C617ED
:10157000D70720F1C530D10578F0CE010497861742
:10158000970750F0C61BD70B2297C193D1936D9349
:101590007C93CF010E94FA09C801DF91CF911F917E
:1015A0000F91FF90EF90DF90CF90BF90AF909F9002
:1015B0008F907F906F905F904F9008955B01AC1A71
:1015C000BD0A4C018C0E9D1EA091D503B091D6038F
:1015D000512C412CF12CE12C109731F58091D30343
:1015E0009091D4038815990509F05CC046165706FA
:1015F00008F058C08091000290910102009741F4D8
:101600008DB79EB74091040250910502841B950B43
:10161000E817F90708F055C0F093D403E093D3031B
:10162000F90171836083B8CF8D919C9111971296C7
:101630006C90129713967C901397A815B90559F5DD
:101640006C0142E0C40ED11CCA14DB0420F1AC01D1
:101650004A195B09DA011296159780F0628273824B
:1016600051834083D9016D937C93E114F10471F0AF
:10167000D7011396FC93EE9312978ECF22968C0F80
:101680009D1FF90191838083F301EFCFF093D6037F
:10169000E093D50381CF4816590608F42C017D014B
:1016A000D3019ACFCB010E945E097C01009749F0DB
:1016B000AE01B8010E94640BC8010E94FA098701BB
:1016C0006BCF10E000E068CFFB01DC0102C00190AD
:1016D0000D9241505040D8F70895FB01DC01019074
:1016E0000D920020E1F7089511E0CAE2D1E000E098
:1016F00006C0802FFE010E9456092196011DCB32A3
:0C170000D10780E00807A9F7F894FFCF9C
:10170C000000D7038000000000004502A501D201B3
:0A171C0092020302E101F501000052
:00000001FF
